:020000040000FA
:0600000002010702254D7C
:03002B0002294562
:030033000229712E
:030053000225C3C0
:100083000223A3E5C754F84401F5C7790122000010
:100093000080FB120086B900030200F1E4792178A5
:1000A30008B800028004F709D8FCE479297802B87B
:1000B30000028004F709D8FCE49002817857791A8A
:1000C3008002F0A3D8FCD9FA7AD77B1B900137784A
:1000D3002379048015E493A3AD82AE838A828B8354
:1000E300F0A3AA82AB838D828E83D8E9D9E7758288
:1000F30044758383740412011975829175830074A6
:100103000012011975D00075813F751881751902A8
:10011300759F00020096C09FF59FE473D09F22D085
:1001230083D082C09FE493C0E0740193C0E0740263
:1001330093F59F22FF0000B4000028002800283018
:1001430075A000A000A000A00000080008E001F0D6
:10015300001000100010001000100010005000509C
:1001630000500010001000D0070000000000000F36
:100173000001000500307507001000010081FF0039
:10018300000000FFFFFF7B0699068106BD06FF0204
:10019300020208025000A0000000E803025291018D
:1001A30000004391026E91010000321C024691014E
:1001B3000000BF02026E91010000331C024891014E
:1001C3000000D502026E91010000341C024A910125
:1001D3000000D702026E91010000351C024C910809
:1001E3000000D802026E91010000361C024E9101FC
:1001F3000000371CFF0100FF200252910100003D67
:1002030091026E910100009B1C02509100000000BE
:100213000002589103000006031700D70DD70DD72E
:100223000DD70DD70DD70DD70DD70DD70DD70DD7AB
:100233000DD70DD70D3711491131110202020202F8
:1002430002020202010D000000100102529101009E
:10025300003A91026E91010000DE1C0268910100D8
:1002630000130D026E91010000DF1C026691010074
:10027300008390026E91010000E01C026491010072
:10028300007590026E91010000E11C026291010071
:1002930000918F026E91010000E21C026091010047
:1002A300007F8F026E91010000E31C025E9101004A
:1002B30000B58F026E91010000E41C0272910100EF
:1002C30000A38F026E91010000E51C025C91010006
:1002D300006790026E91010000E61C025A91010032
:1002E30000E71C01E8030577100A1106EB3872CA10
:1002F3004848E88D974A90F0000031A609094B421F
:100303004420303030300201060302AAFE1316AA3D
:10031300FE10C403676F6F2E676C2F6D554B6776A6
:10032300514B424420303030306B130000711308BE
:100333004B424420747970652063687200084B4215
:100343004420747970652073747220313600084B31
:100353004244207265706F727400124B4244204C09
:10036300454400084D4F5553450008434F4E5355E0
:100373004D4552000252910100004091026E9101DD
:100383000000D21D1027900200008B0E026C910119
:100393000000D31D026E91010000E01D1057900272
:1003A30000008C0E026C91010000E11D026E9101B0
:1003B3000000F11D101790020000950E026C9101D0
:1003C3000000F21D026E91010000FD1D10C78F0198
:1003D30000009D0E0258910300009E0E026C9101D5
:1003E3000000FE1D026E91010000061E10D78F0251
:1003F3000000A00E026C91010000071E026E910125
:1004030000000D1E10E78F020000A40E026C910184
:1004130000000E1EFFFFFF000130750302010600FE
:1004230000000000000000000000000000000000C9
:100433000000000000000000000000FFFF06008035
:100443000CE8037D163117111841184118000000FC
:100453000101FF00FF001201226DDA031201228065
:10046300DA03120122B1DA03120122EBDA031201D9
:100473002244DB031201228BDB03120122D3DB03B1
:1004830012012202DC0312012231DC031201226871
:10049300DC03120122AFDC03120122C8DC031201C8
:1004A300221DDD0312012236DD0312012284DD0346
:1004B300120122BEDD03120122DEE902120122E152
:1004C300EA021201221AEB021201223DEB0212018F
:1004D300224FEB021201228DEB0212012209EC02E0
:1004E300120122D1EC02120122F3EC021201228A40
:1004F300ED02120122DCED021201220DEE021201C5
:10050300221AEE0212012284EE02120122DBEE0213
:10051300120122DEEE0212012217EF021201221A49
:10052300EF0212012224EF0212012278EF021201DC
:1005330022B9EF02120122ECEF0212012229F0028A
:100543001201222BF102120122CFF10212012238F1
:10055300F20212012276F2021201228CD20312015C
:1005630022B4D203120122E1D20312012219D303CE
:1005730012012277D303120122C3D3031201222AC9
:10058300D4031201226AD403120122A7D403120155
:1005930022D5D4031201227FD50312012289D50368
:1005A30012012296D503120122C9D503120122D5C5
:1005B300D503120122EDD503120122F7D50312014F
:1005C300220080041201220E8004120122268004DC
:1005D3001201223D8004120122BFE10112012269AE
:1005E300E2011201227CE301120122F8E30112016C
:1005F3002216E50112012252E501120122EDE50165
:10060300120122D1E6011201229DE7011201222BE0
:10061300E9011201229CE90112012256EA011201A9
:100623002248EB0112012288EB011201223CEC016A
:100633001201226EEC0112012264EE01120122ABBF
:10064300EE01120122C9EE011201222FEF01120164
:1006530022FEEF01120122C2F001120122E1F20196
:100663001201226E8F0312012258900312012203FA
:1006730091031201225491031201220492031201E5
:10068300227592031201225A93031201228E9303BD
:10069300120122879403120122C49403120122A09F
:1006A3009503120122DF9503120122FB9503120128
:1006B30022B2F20312012236F30312012261F30381
:1006C3001201227BF40312012285D6031201229B1D
:1006D300D603120122B9D603120122CAD70312018B
:1006E30022D4D703120122FFD803120122F6D90321
:1006F30012012263DA03120122129D03120122481E
:100703009E031201227F9E03120122D69E03120131
:1007130022EBA0031201222BCF01120122B7CF013A
:100723001201221BD10112012227D10112012262DF
:10073300D101120122D1D101120122DAD201120117
:1007430022E3D301120122AAD40112012207D60106
:1007530012012225D60112012242D601120122EFF3
:10076300D6011201226CD70112012294D701120182
:10077300225EDA0112012263DA011201227CDC011A
:10078300120122CADC011201223ADD011201227890
:10079300DD0112012254DE0112012214DF011201D4
:1007A3002260DF0112012263DF01120122A7DF01B0
:1007B300120122EFDF011201222EE0011201225069
:1007C300E00112012284E001120122E7E00112019B
:1007D3002285B20312012293B203120122E6B2036D
:1007E30012012205B3031201224AB3031201228E1E
:1007F300B40312012229B5031201226DB5031201BC
:100803002297B50312012206B6031201224CB60346
:10081300120122C3B60312012274B7031201225438
:100823002A00120122642A00120122052B00120160
:1008330022612B001201221E2C001201223A2D00EC
:100843001201226C2D001201229B2D00120122485D
:100853002F00120122BF31001201222F3400120196
:10086300222135001201221A3600120122213800FA
:10087300120122153B00120122443C0012012248BE
:100883003E00120122583F00120122E740001201EC
:1008930022D8410012012226420012012295420071
:1008A300120122B942001201220A4300120122ABB3
:1008B3004700120122AC48001201220D4900120127
:1008C30022384900120122FE490012012267C503A2
:1008D30012012271C503120122B6C503120122CAF5
:1008E300C5031201225AC60312012293C603120141
:1008F30022CEC603120122F7C60312012245C70303
:100903001201225AC7031201226FC7031201229751
:10091300C703120122ABC703120122C0C70312018E
:1009230022FAC70312012226C8031201225DC8035B
:10093300120122BFC80312012231C903120122741A
:10094300C9031201229EC903120122C9C90312015C
:1009530022EB7E0012012250AA0212012233AB02C3
:10096300120122AEAB02120122E9AB021201223ABA
:10097300AD02120122C3AD02120122DBAF0212014A
:10098300226DB2021201221FB3021201222BB40202
:100993001201229EB502120122F7B502120122C9E9
:1009A300FA021201220CFB0212012290FB02120135
:1009B3002263FC021201223AFF0212012212EE0309
:1009C300120122BFEE03120122CCEF031201220B0C
:1009D300F00312012265F003120122AAF4031201AB
:1009E300220DF503120122AAF503120122DFF503FA
:1009F3001201220FF6031201224AF6031201226AA0
:100A0300F60312012286B70312012212B803120160
:100A130022D1B803120122E9B90312012203BC0354
:100A2300120122A0B602120122C5B60212012292BD
:100A3300B70212012266B802120122D3B8021201D0
:100A43002213B902120122AFB902120122E3BA0240
:100A5300120122BEBB021201221DBC02120122A9F5
:100A6300BC0212012217BD02120122A3BD02120110
:100A730022E9BD021201225BBE02120122EDBE0277
:100A83001201228EBF02120122AEBF02120122F610
:100A9300BF021201223FC0021201225BC0021201F7
:100AA3002281C002120122FBC00212012209C102EB
:100AB30012012298C10212012201C202120122D1A3
:100AC300C00312012256C10312012298C10312016D
:100AD300227CC203120122E9C2031201222DC303A5
:100AE30012012271C3031201229EC303120122C603
:100AF300C303120122FEC3031201223CC4031201E9
:100B03002263C403120122DDC40312012227C50399
:100B1300120122D86600120122D16800120122BDFF
:100B23006B00120122116C001201223C6C001201B5
:100B330022166D00120122556D001201229C6D00D8
:100B4300120122AF6D00120122F06D001201221D6D
:100B53006E001201226B6E00120122AA6E001201B6
:100B630022D56E00120122286F00120122B76F00F6
:100B7300120122957200120122B07400120122EEBA
:100B83007400120122637600120122C07600120162
:100B930022D978001201223B7900120122C3790085
:100BA300120122097A001201222E7C001201223343
:100BB3007C001201220D7D00120122867D001201AC
:100BC30022B67E00120122C87E0012012234CD0219
:100BD300120122B3CD02120122ACD302120122B2BE
:100BE300D40212012225D602120122BCD60212011E
:100BF300226A4A00120122B34A00120122E04A008B
:100C0300120122124B001201221E4B001201222A52
:100C13004B00120122414B001201221C4C00120115
:100C2300227A4C00120122AF4C00120122E04D0047
:100C33001201222D4E00120122734E00120122DFF7
:100C43004E00120122834F0012012239500012017B
:100C5300229850001201220951001201226751000B
:100C6300120122995200120122015400120122CBD7
:100C73005400120122D854001201221A5500120105
:100C8300222A55001201224E55001201225155000D
:100C93001201223D5600120122D95600120122727E
:100CA300570012012209580012012236580012017E
:100CB30022945800120122DB58001201222B590002
:100CC3001201227B5900120122ED590012012288E0
:100CD3005A00120122335B00120122D25B0012017F
:100CE30022505C00120122975C00120122FB5C007F
:100CF3001201222A5D00120122C15D00120122D3DA
:100D03005F001201221760001201226260001201CB
:100D130022E860001201227261001201228B62003C
:100D23001201221163001201224E63001201226399
:100D33006300120122D663001201221B6400120118
:100D430022246500120122D56500120122336600B8
:100D53001201228F6600120122A86600120122925C
:100D6300E002120122E6E002120122F2E002120185
:100D730022BCE102120122E9E10212012217E2027E
:100D830012012283E202120122B9E202120122F2CB
:100D9300E2021201220AE3021201225FE3021201BC
:100DA3002278E302120122BDE302120122D0E30200
:100DB300120122EAE30212012200E4021201221EBE
:100DC300E50212012249E60212012233E70212016F
:100DD3002224E802120122FCFF011201226AAD0360
:100DE300120122EDB0031201223AB203120122EBE7
:100DF300F201120122BEF501120122C4F501120112
:100E03002254F801120122B7FA011201223ABC035B
:100E1300120122D1BC031201228FBD03120122B998
:100E2300BD0312012293BF0312012298C0031201D2
:100E330022759101120122A79101120122C49D0181
:100E4300120122159F011201221EA0011201229DEF
:100E5300A10112012288A201120122D7A2011201CB
:100E630022F1A20112012233A3011201223EA301A6
:100E730012012285A3011201228EA3011201223A3B
:100E8300A40112012213A5011201225AA501120184
:100E930022C2A50112012204A60112012232A601D7
:100EA3001201226FA60112012227BC01120122F2B4
:100EB300BF01120122F8BF011201229CC6011201D7
:100EC30022F0CA01120122D9CE01120122D7E10375
:100ED3001201224DE20312012263E203120122F303
:100EE300E20312012230E3031201226AE303120137
:100EF30022A4E30312012217E40312012258E4039C
:100F030012012261E4031201226DE4031201228C17
:100F1300E403120122B6E403120122CBE40312011B
:100F2300220EE5031201225C96031201226F96033F
:100F3300120122899603120122B69603120122FCA2
:100F430096031201222F97031201226D97031201B8
:100F530022D29703120122E79703120122F2970389
:100F6300120122FF97031201221698031201222471
:100F730098031201223398031201224898031201A5
:100F8300225D9803120122689803120122749803C8
:100F93001201228198031201229498031201229FC5
:100FA3009803120122C498031201226899031201C3
:100FB300227899031201228D9903120122A7990322
:100FC300120122C49903120122E19903120122ECB6
:100FD3009903120122989A03120122799B031201A9
:100FE300229E9B03120122A99B03120122BE9B0393
:100FF300120122D29B03120122339C0312012239D4
:101003009C031201223F9C03120122459C031201FF
:10101300225D9C03120122909C03120122CD9C02AB
:10102300120122649D02120122FC9D02120122EC94
:101033009E02120122239F02120122369F021201F5
:1010430022A49F021201223FA10212012266A102E1
:1010530012012208A2021201223DA2021201224E13
:10106300A202120122C7A202120122E8A202120165
:101073002200A30212012258A40212012261A60235
:10108300120122B1A802120122B4A9021201220301
:10109300AA02120122008002120122FD8002120123
:1010A30022E88102120122F2810212012214820239
:1010B300120122208202120122728302120122A152
:1010C3008302120122D1840212012213850212012A
:1010D300223F86021201221587021201226787022C
:1010E300120122C68702120122FD87021201223851
:1010F3008802120122D38B02120122EC8B0212010D
:10110300226E8C021201227C8C02120122D18C02EB
:10111300120122DF8C021201224C8D02120122BE27
:101123008D02120122048E0212012224C202120134
:101133002246C20212012230C402120122D5C70282
:1011430012012218C902120122F2C90212012278E5
:10115300F6031201229DF6031201220EF703120178
:10116300229CF202120122A5F202120122AEF20225
:10117300120122DFF302120122FEF50212012234D0
:10118300F6021201226EF602120122A4F6021201E5
:1011930022DEF60212012212F7021201223EF702A8
:1011A30012012287F702120122C1F702120122095A
:1011B300F8021201225FF80212012294F8021201CE
:1011C30022EFF80212012229F9021201227AF9020E
:1011D300120122B0F902120122EAF90212012218C5
:1011E300FA021201223BFA02120122CD80041201FB
:1011F30022F980041201225481041201225E810427
:101203001201226E810412012285E803120122AC2D
:10121300E803120122D6E8031201229A8304120181
:1012230022A3A7011201220CAA01120122C3AB01BE
:1012330012012220AC011201221DAD01120122A5CF
:10124300AD0112012231AE0112012256AE0112018B
:10125300224BB101120122C1B101120122ADB2012F
:10126300120122E7B20112012227B301120122C7A0
:10127300B4011201221CB50112012269B501120148
:1012830022D7B501120122FEB50112012218B601BF
:101293001201222EB7011201223EB701120122C40C
:1012A300B801120122E4B8011201221AB901120194
:1012B3002285BA01120122C4BA0112012202BC0121
:1012C300120122F1C90312012249CA031201229118
:1012D300CB0312012200CC03120122AFCC03120173
:1012E30022CECC0312012222CD0312012260CD03B0
:1012F3001201229F8404120122E483041201222397
:101303008404120122ECFF0212012267FF01120181
:101313002277FF011201228CFF01120122D5FF0166
:1013230012012299FC031201221DFD0312012283E3
:10133300FD03120122492A0012012226DE031201B3
:10134300223ADE03120122CBDE03120122A0DF03C5
:1013530012012272E103120122E6D6021201226770
:10136300DA02120122EADB021201222ADC02120152
:101373002201DD02120122F4DF0212012220A8035E
:1013830012012279A803120122DFA803120122FC11
:10139300A803120122E6A9031201228DAA03120156
:1013A3002236AB0312012293FE03120122BCFE0379
:1013B300120122E5FE0312012227FF03120122B2CA
:1013C300A203120122BCA203120122FCA2031201F6
:1013D3002245A3031201227FA303120122D5A303F3
:1013E300120122F4A303120122FDA3031201224ED0
:1013F300A40312012277A4031201228CA403120175
:1014030022FCA4031201228AA503120122CEA50302
:10141300120122F6A50312012275A603120122B8B6
:10142300A603120122F5A60312012207A703120144
:101433002226A7031201222FA703120122F4A703D6
:10144300120122DCF9031201222DFA03120122B642
:10145300FA031201221CFB0312012253EB031201B4
:10146300227DEB0312012272EC03120122A1EC0391
:1014730012012227ED031201229CFD03120122E532
:101483008204120122B0F003120122E6F0031201DA
:10149300221FF10312012278F2031201226CFF03CF
:1014A30012012282FF031201228CFF031201220088
:1014B3008003120122BD8003120122F8800312016E
:1014C30022208103120122828103120122CE810391
:1014D300120122398203120122B58203120122B1C1
:1014E3008303120122388503120122BB85031201F3
:1014F300221F86031201223686031201222C870340
:1015030012012278870312012272CE03120122876D
:10151300CE031201223ACF031201227ACF03120122
:101523002293CF03120122C6CF0312012213D00349
:1015330012012247D00312012289D0031201227F14
:10154300D2031201228D8E02120122449202120151
:1015530022D693021201222D94021201224C9402EC
:10156300120122CA94021201225C96021201224045
:101573009702120122519B02120122259C021201A1
:10158300222EF80312012278F80312012288F803AD
:10159300120122E1F8031201223CF9031201228510
:1015A300F90312012281FB03120122EEFB03120154
:1015B30022FFFB0312012248FC031201227EFC03DB
:1015C3001201223CE50312012291E503120122B527
:1015D300E5031201220AE80312012224E80312019F
:1015E300224FE8031201227881041201228D810423
:1015F3001201221482041201223F82041201226981
:1016030082041201226B82041201226D82041201F0
:10161300227E820412012280820412012283820428
:10162300120122E2FF03120122D68703120122A82C
:1016330088031201229A8903120122AB8903120142
:1016430022BC8903120122068A03120122468C035B
:10165300120122978D03120122C78D0312012292D8
:101663008E03120122F28E031201222D8404120131
:1016730022738404120122DEFF0112010002000022
:1016830000205104B41600010102030109025400B1
:10169300030100A01909040000010301010009214D
:1016A30011010001223F000705810308000A090414
:1016B30001000103000000092111010001226D0056
:1016C300070582030C000A09040300010301020059
:1016D300092111010001223400070584030F000AC8
:1016E30004030904160344006500710069006E00D9
:1016F30067002000530075006E001A034B00420080
:101703004400200042004C0045002000300030001F
:10171300300030001A033000300030003000300059
:101723003000300030003000300030003000050160
:101733000906A10195087501050719E029E71500B8
:10174300250181029501750881019505750105083B
:1017530019012905910295017503910195067508F3
:10176300050719002965150025658100C0050C09C9
:1017730001A1010902A10205091901290A1501257F
:101783000A750495018100C0050C098615FF250122
:1017930075029501814609E909EA1500750195026B
:1017A300810209E209300983098109CD094009B29F
:1017B30009B309B409B509B609B71501250C7504B0
:1017C300950181000980A102050919012903150169
:1017D300250375028100C08103C005010902A1012F
:1017E3000901A10005091901290315002501750146
:1017F30095038102750595018101050109300931C0
:1018030009381581257F750895038106C0C022001C
:10181300000031173F002200000170176D00220005
:101823000003DD17340021000000A1160900210088
:101833000001BA16090021000003D3160900981607
:101843000000B1160000CA160000E066701008A37D
:10185300E066700A08A3E066700408A3E06622C38A
:10186300E7960809E7960809E7960809E79622C369
:10187300E09608A3E09608A3E09608A3E09622C0AA
:1018830008C3E096F50808A3E096420808A3E0968B
:10189300420808A3E09645087001D3D00822E96CFA
:1018A3007006EA6D7002EB6E22BB0102E722C08272
:1018B300C08389828A83BB0003E08002E493D083E0
:1018C300D08222BB000EC082C0838A838982F0D07B
:1018D30083D08222BB0101F722080808EAC0E0EBAB
:1018E300C0E086F0E7A4FA180986F0E7A42AFA18FC
:1018F3000986F0E7A42AFA180986F0E7A42AFA1958
:1019030086F0E7A4FBE5F02AFA190886F0E7A42B92
:10191300FBE5F03AFA190886F0E7A42BFBE5F03A69
:10192300FA18180986F0E7A4C5F02BFBE43AFA1974
:1019330008E7C5F0C6A426F6E5F03BFBE43AFA183F
:1019430086F0E7A4F6E5F00826F6E43B08F6E43A69
:1019530008F6D0E0FBD0E0FA22E4CFC0E0E4CEC04A
:10196300E0E4CDC0E0E4CCC0E075F020E626F60864
:10197300E633F608E633F608E633F6181818EC33C0
:10198300FCED33FDEE33FEEF33FFC3EC9709ED9728
:1019930009EE9709EF97191919400FFFEC97FC0906
:1019A300ED97FD09EE97FE191906D5F0BFECF7097F
:1019B300EDF709EEF709EFF7191919D0E0FCD0E0BC
:1019C300FDD0E0FED0E0FF226016080808C6C3136E
:1019D300C618C613C618C613C618C613C6D5E0EA7A
:1019E300227009080808226016181818C6C333C6DF
:1019F30008C633C608C633C608C633C6D5E0EA22CE
:101A0300E627F60809E637F60809E637F60809E691
:101A130037F622E026F608A3E036F608A3E036F60A
:101A230008A3E036F622E026F008A3E036F008A388
:101A3300E036F008A3E036F022C3E697F60809E69D
:101A430097F60809E697F60809E697F622C3E096A3
:101A5300F008A3E096F008A3E096F008A3E096F060
:101A630022E056F608A3E056F608A3E056F608A3CC
:101A7300E056F622E056F008A3E056F008A3E0563D
:101A8300F008A3E056F022E0F608A3E0F608A3E08E
:101A9300F608A3E0F622E6F008A3E6F008A3E6F0D2
:101AA30008A3E6F022E0FAA3E0FBA3E0FCA3E0FD39
:101AB30022E0F8A3E0F9A3E0FAA3E0FB22E8F0A315
:101AC300E9F0A3EAF0A3EBF022CAC0E0E6F0A30832
:101AD300DAFAD0E0FA22CAC0E0E0A3C582CCC5821C
:101AE300C583CDC583F0A3C582CCC582C583CDC5CF
:101AF30083DAE6D0E0CA22C3E498F8E499F9121B2A
:101B03003B8026C3E49AFAE49BFBE920E7E9121B36
:101B13003BE498F8E499F922C3E498F8E499F912BC
:101B23001B3BE498F8E499F9C3E49AFAE49BFB229B
:101B3300EB20E7CFE920E7E0B90010BB0008E88A13
:101B4300F084F8AAF022E4FBC8FA22EB70227B109F
:101B5300C833C8C933C9335007C39AC3DBF28006FD
:101B63009A50012ADBEAC833F4C8C933F4C9FA220C
:101B730075F008E4C833C8C933C933C99AC99B503F
:101B830004C92AC93BD5F0ECFBC833F4C8E4C9FA4D
:101B930022600D08C6A2E713C618C613C6D5E0F324
:101BA30022600C08C6C313C618C613C6D5E0F422B8
:101BB300700422600D18C6C333C608C633C6D5E009
:101BC300F41822251810AF08F518400C15198008D1
:101BD300F51840021519D2AF2200C0D0251810AF56
:101BE30008F518500C05198008F51850020519D28C
:101BF300AFD0D0222518F58210AF08F518400C1588
:101C0300198008F51840021519D2AF8519832225CA
:101C130018F582E43519F583222518F8E43519F906
:101C2300222518FAE43519FB222518FCE43519FDA1
:101C330022E4732518C582C0E0E51934FFC583C0CB
:101C4300E0E518C3958224F810AF088583198582CF
:101C5300188008858319858218D2AFCEF0A3E520BA
:101C6300F0A37808E608F0A3DEFAEFF0A3E58124F9
:101C7300FAF8E608F0A3E608F0A3E608F0A30808DC
:101C8300E608F0A3E608F0A315811581D0E0FED0A5
:101C9300E0F8158115811581E8C0E0EEC0E022254A
:101CA30018C582C0E0E51934FFC583C0E0E518C359
:101CB300958224F910AF08858319858218800885D9
:101CC3008319858218D2AFCEF0A3E520F0A378085C
:101CD300E608F0A3DEFAEFF0A3E58124FBF8E608BB
:101CE300F0A3E608F0A30808E608F0A3E608F0A3CB
:101CF30015811581D0E0FED0E0F815811581E8C08B
:101D0300E0EEC0E022851983851882E0A3FEE0A3FC
:101D1300F5207808E0A3F608DFFAE0A3FFE0A3C00C
:101D2300E0E0A3C0E0E0A3C0E0E0A3C0E0E0A3C024
:101D3300E010AF088582188583198008858218858D
:101D43008319D2AFD083D08202011F8519838518EE
:101D530082E0A3FEE0A3F5207808E0A3F608DFFA0B
:101D6300E0A3FFE0A3C0E0E0A3C0E0E0A3C0E0E0A5
:101D7300A3C0E010AF088582188583198008858287
:101D830018858319D2AFD083D08222C0D02518C53D
:101D930082C0E0E51934FFC583C0E0E518C395822E
:101DA30024F310AF08858319858218800885831969
:101DB300858218D2AFC8F0A3E9F0A3EAF0A3EBF051
:101DC300A37908E709F0A3D8FAECF0A3EDF0A3EEAA
:101DD300F0A3EFF0A3D0E0F0A3D0E0F0A3D0E0F0C5
:101DE300A3E520F0A3E5F0F0A322851983851882EB
:101DF300E0C0E0A3E0F9A3E0FAA3E0FBA37808E0E6
:101E0300F608A3DFFAE0FCA3E0FDA3E0FEA3E0FFF6
:101E1300A3E0C0E0A3E0C0E0A3E0F5D0A3E0F52099
:101E2300A3E0A3F5F010AF08858319858218800815
:101E3300858319858218D2AFD082D083D0E0F8D0C1
:101E4300E0327404800A7403800674028002740111
:101E5300C0E0F404121BF7D0E0121ACC2274048001
:101E6300087403800474028000CCC0E0EDC0E0E598
:101E730018C39CCCAD1950011D10AF068C188D19D9
:101E830080068C188D19D2AF121AD9D0E0FDD0E09C
:101E9300FC22D083D082E9C0E0E493A3C386F0C5DB
:101EA300F095F0F908E493A386F0C5F095F0700B74
:101EB300E493A3C3994005E9048002A3E475F00207
:101EC300A42582F582E5F03583F583D0E0F9E49328
:101ED300A3C0E0E493C0E022D083D082ECC0E0ED65
:101EE300C0E0E493A3FCE493A3FDED4C600D121F4B
:101EF30027EC24FFFCED34FFFD80EFE493A3FCE427
:101F030093A3FDED4C600D121F66EC24FFFCED3432
:101F1300FFFD80EFD0E0FDD0E0FCE493A3C0E0E45C
:101F230093C0E022C0E0C3E493960874019396182B
:101F3300400FE4936670080874019366187000708C
:101F430019A3A3C3E49396087401939618A3A3401B
:101F53000DD0E0D0E0D0E0021F17A3A3A3A3A3A357
:101F6300D0E022C0E0C0F088F0E493667008087403
:101F7300019366187000A8F0A3A3700BD0F0D0E013
:0E1F8300D0E0D0E0021F17A3A3D0F0D0E022E0
:101F940074F6121CA2EAFEEBFF8C088D09EE2434C1
:101FA400F8E43FF9E8FCE9FD1220C6E0FAEE243734
:101FB400F582E43FF583E0F88508F0A4C885F00ACB
:101FC4008509F0A4250AF9EA28F8E439F97A257B89
:101FD40000121B3BEA8C828D83F0FA131313541FF7
:101FE400F8EE28F8E43FF9E8245DF582E439F58356
:101FF400E0C0E074075AF8D0E0B800028004C313CC
:10200400D8FCA2E05003EA8020EE2436F582E43FB7
:10201400F583E0F5F0EA84A8F0EE28F8E43FF9E867
:102024002438F582E439F583E0F97F03021D4E7408
:10203400F5121CA2EAFEEBFFEE2434F582E43FF530
:1020440083E0C0E01220C6D0E0F08E828F83A3A389
:10205400A3A3A3E0FAA3E0FB8E828F83A3A3A3A38D
:10206400A3A3A3E0C39AF508A3E09BF509EE247F9C
:10207400F8E43FF9880A890B8882F583E0640170EB
:102084002CEE2480F582E43FF583EA2401F8E43B56
:10209400F9E0687003A3E06970137CCD7D06EEFA65
:1020A400EFFB120CF3850A82850B83E4F0AC08ADD8
:1020B40009EEFAEFFB121F94E9F91229377F0402A3
:1020C4001D4EEE2435F582E43FF58322C082C083A1
:1020D400851882851983E0F8A3E0F9C3EA9CEB9D97
:1020E4005010C3EC98ED99401BC3EA98EB99501437
:1020F400800EC3EA98EB994007C3EC98ED9940042D
:10210400790180027900D083D08222EAC39CFAEB61
:102114009DFB2274ED121CA2900376E06408600516
:10212400E06407702C9061C8E060269003A4E0F896
:1021340074FF68601CE875F00DA4C8AAF02AF9744D
:10214400A628FE740339FF8E828F83A3A3A3E070B5
:102154000579000222B9EE2468F50EE43FF50F90EC
:102164006060E0850E82850F83F075106775110736
:10217400750800750900E5D914F50AE5D95403F585
:102184000B601FEE2483F50CE43FF50D7403650B1F
:102194006059E50A6017EE2467F582E43FF583E0B1
:1021A400700B793DEEFAEFFB120D2380A4900762C9
:1021B400E064016023850C82850D83E060047A0469
:1021C40080027A00E50AC39AFA95E0FB120B258A8D
:1021D400088B09EA45097006120FFF022155850C88
:1021E40082850D83E070048A108B117A008014E5D7
:1021F400D9C0E0EAF8E51028F582E43511F583D07A
:10220400E0F00AEAC3950A40E6850C82850D83E076
:10221400602874FC250AF50A7810121E4DAC0AA930
:102224000BEEFAEFFB120DD17402121BDCE9700AFB
:10223400AA08AB091214490221A67403650B605461
:10224400850A0C750D00780C121E4DAC10AD11AA48
:1022540008AB09120D957402121BDC850E82850FE2
:1022640083E0F87480687005750C7F8002880CE543
:102274000CF50D780D121E51780B121E51A90AACE3
:1022840008AD099003A4E0FA7B001209517402120C
:102294001BDC801C900376E06408AC10AD1170095F
:1022A400EEFAEFFB120E018007EEFAEFFB120EBB03
:1022B40012100B79017F0C021D4E74F3121CA274D0
:1022C400FC121BC6EAFEEBFF8909A2AFE433F50852
:1022D400C2AFEE2463F50AE43FF50B8010AA0AAB03
:1022E4000B120D4D1214499006D4E004F0850A82B5
:1022F400850B83E0F8A3E0F9E849602DE82402FAAD
:10230400E439FBEA2402F50CE43BF50D780C121ECB
:102314004D8A828B83E0FCA3E0F9EEFAEFFB120D09
:10232400417402121BDCE960B49006D4E0604D9065
:1023340006D5E0F89006D4E0C398500C7402650901
:10234400703A9006D6E060348E828F83A3A3A3A351
:10235400E08518828519831223907402121C12E8F6
:102364001223909006D3E028F07402121C2CAA18B1
:10237400AB1979011209B19006D4E4F0E508A2E0A2
:1023840092AF7404121BDC7F06021D4EF0A3E4F02E
:102394009006D4E0F82200008521878522C622C059
:1023A400E074EB121D8EA2AFE433F508C2AF759B47
:1023B40000906182E0A2E05030E591A2E0502A75DD
:1023C40091FE740165217021122536120F15122514
:1023D40024121E601226E17404121BDCE9640170ED
:1023E400057901120F63122117906182E0A2E55072
:1023F4005DE591A2E550577591DF900376E064079F
:102404006005E06408702F12253674016521703E62
:10241400120F15122524121E601226E17404121BD9
:10242400DCE9640170057901120F637901EEFAEFBA
:10243400FB1222BE8018E0640D7013900398E00430
:10244400F064287002E4F07A00E0F912101190614F
:1024540082E0A2E640030224F9E591A2E6400302E9
:1024640024F97591BF900376E064057008120EFD9F
:10247400120F098003120F03752100120F81E990D6
:102484000377F07900120F63120C157A017B009028
:102494000375E0F9121419907803E06442705690C1
:1024A4000766E014F0704EC2AF1224B000782AD050
:1024B400E0F618D0E0F6E59F5407F87005750DFFB7
:1024C4008003750D7FC4C0E07829E6F50A08E65557
:1024D4000DF50B740B780A121BA4D0E0250AF890B2
:1024E4006270E0A2E740F8E8C333906272F0906251
:1024F40070E0D2E0F0906181E0A2E35009E5E9A246
:10250400E3500375E9F7A3E0A2E75009E591A2E7D8
:10251400500375917FE508A2E092AF7F08021DED9C
:102524008E828F83E0F8A3E0C82416F582E438F5A0
:1025340083229003A4E0F875F00DA4C8AAF02AF948
:1025440074A628FE740339FF22C0E0C0D0C082C044
:1025540083906183E0A2E05009E5BFA2E0500375D7
:10256400BFFEE0A2E15009E5BFA2E1500375BFFD43
:10257400E0A2E25009E5BFA2E2500375BFFBE0A26E
:10258400E35009E5BFA2E3500375BFF7E0A2E450AE
:1025940009E5BFA2E4500375BFEFE0A2E55009E5E9
:1025A400BFA2E5500375BFDFE0A2E65009E5BFA274
:1025B400E6500375BFBFD083D082D0D0D0E032C004
:1025C400E074F2121D8EE5A7A2E4500FE5A1A2E487
:1025D400500953A7EF75A1EF122617E5A7A2E550FE
:1025E4000CE5A1A2E5500653A7DF75A1DFE5A7A27C
:1025F400E15009E5A1A2E1500375A1FDE5A7A2E21E
:10260400500CE5A1A2E2500653A7FB75A1FB7F0184
:10261400021DED74F8121CA2752101900376E0648A
:102624000670077A007B00120EE5A2AFE433FED2F7
:10263400AF90037CE0640170187A207B00900375EE
:10264400E0F912152D7A207B00900375E0F912143D
:102654001F906182E0D2E6F0900763E0602185C6B6
:1026640022801690037BE064017008E5C654F844A8
:1026740005F5C653BEFC12239C7401652160E4EE8B
:10268400A2E092AF7F01021D4E0000008E238F2432
:10269400858228858327851882851983E0CEA3E067
:1026A400CF852882852783EBC9EAC8EDCBECCA75B0
:1026B400F010C3E833C8E933C9EA33CAEB33CBC3F8
:1026C400EA9EF526EB9FF525B35004AB25AA26EC2C
:1026D40033CCED33CDD5F0DAAE23AF242274F1122E
:1026E4001CA28A088B098C0A8D0B9090E67808123C
:1026F4001A64740F121C12780C121A8A9090E678DD
:102704000C121A647808790C1218629090C2501056
:102714007808790C121A3C78081218824014800E3A
:10272400780C7908121A3C780C121882500479013A
:10273400800279007F08021D4E74ED121CA28A08E3
:102744008B098C0A8D0B9090E67808121A64741326
:10275400121C12780C121A8A9090E6780C121A64E1
:10276400780C790812186240117808790C121A3C16
:10277400AA08AB09AC0AAD0B8022751000751100D4
:102784007512007513017810790C121A3C781079BF
:1027940008121A03AA10AB11AC12AD137F0C021D60
:1027A4004E9090E67808121A8A8A828B83780812EF
:1027B4001A777F04021D4E74F5121CA28C828D833D
:1027C4007808121A8A8A828B837808121A5012287F
:1027D4000FC3E098F0A3E099122801401E909102E3
:1027E4007808121A8A8A828B837808121A298E82B0
:1027F4008F83E02420F0A3E0344EF080A4F08E8296
:102804008F83C3E09420A3E0944E22EA2404F8E4E6
:102814003BF9E8FEE9FF8C828D83A3A3A3A3E0F830
:10282400A3E0F98E828F832274F5121CA2E9FE9034
:1028340006EFE0FAA3E0FBEE29F8E433F974372855
:10284400F582749039F583E02AF508A3E03BF50995
:102854007808121E4D90912A121AA812269074021A
:10286400121BDC8A088B098C0A8D0B7410780812F1
:1028740019CBAA08AB097F04021D4E74F1121CA2E5
:102884008A0C8B0D8C0E8D0F7411121C12121E6883
:102894007411121C12E02401F508A3E03400F509B8
:1028A400E4F50AF50B780C79081218DC9090CA78D4
:1028B40008121A8A780C79081218DCAA0CAB0DAC31
:1028C4000EAD0F1226907402121BDC8B09EA450927
:1028D40060047A0180027A00EC2AFCE43DFD741362
:1028E400121C12E0F8A3E0F9E8FEE9FFECF8EDF9B8
:1028F4007A717B02121B3B88088909E4F50AF50BFF
:102904008E828F837808121A99ECF8EDF97A717B2C
:1029140002121B3B8A088B0974057808121BB38EBC
:10292400828F83A3A3A3A3E508F0A3E509F07F089E
:10293400021D4EC082C083E9906000F0D083D08233
:1029440022C0E0C0D0E8C0E0E9C0E0A9A8D2AFC28C
:10295400C7E9A2E7E433F8E9A2E792AFD0E0F9D0FF
:10296400E0F8D0D0D0E032C2AF02000022C0E07460
:10297400EF121D8EA2AFE433FCD2AF7480659E705B
:10298400FA90620F7403F0E0A2E750FB906206E055
:10299400FA74065A7006E58BA2E55042EAA2E250A8
:1029A40033901B9AE0F8A3E0E890620B122A3D747E
:1029B400047808121BA4E508906207122A3D7409E2
:1029C4007808121BA4E508543E906209F090620155
:1029D400E0D2E0F0EAD2E1FA901B9CE48016EAA28D
:1029E400E0501290620FE0C2E1F0E0A2E740FB90F9
:1029F4001B9C7401F0906202E0F508906204E0F51B
:102A04000A75090074047808121BB3EA4508FA75BC
:102A14000B007409780A121BB3EAF8E509450BF9AF
:102A2400901B98E048F0A3E049F0758B00C2E8ECF5
:102A3400A2E092AF7F04021DEDF0901B9AE0F5082E
:102A4400A3E0F5092202011FFFFFFFFFFFFFFFFFC5
:102A5400C082C083E9901C9AF0D083D08202011F07
:102A640074F6121C36E99002E8F0900348E0F50889
:102A740075090074027808121BB3AA08AB09121472
:102A8400919002E91234179002E9123804606F90B1
:102A94000348E075F003A4FAABF012149190030616
:102AA400123417900306123804700B9002E912379F
:102AB400D512149780489003061247697AFF7BFF6A
:102AC4001212C37A0080198A087509007402780802
:102AD400121BB312421174FF122C17E4F0A3F00A74
:102AE400900348E0F8EAC39840DD7905120837906E
:102AF40002E8E0F91207237AC17B08120AC50242F0
:102B0400B474F4121C368A088B09EB548060479025
:102B140002E8E0F91214018A0A8B0BAE0AAF0BEE3D
:102B24004F602A8E828F83E064B0701A120849E9DC
:102B340060148E828F83A3A3A3A3E0F9EE2405FA85
:102B4400E43FFB120819EEFAEFFB1213EFAA08E5B3
:102B5400096480FB80047A007B00022D6774F21202
:102B64001C3674FB121BC6EAFEEBFFEE4F60457485
:102B740003121C12EEF0A3EFF0851882851983EC82
:102B8400F0A3EDF07402121C12E9F0AA18AB1912AA
:102B9400071DE9F50870757413121C12E0F50AA3F9
:102BA400E0F50BE50A450B60638E828F831231A03A
:102BB400EE4F700575080280537A067B001214915B
:102BC4008A0C8B0DA80CA90DE849700575081380B3
:102BD4003B88828983E4122C17EEF0A3EF122D3385
:102BE400E50AF0A3E50BF09002EC122D2C9002EC18
:102BF4006017E0FCA3E08003EAFCEBFD8C828D838C
:102C0400122D2C70F38C828D83123E2CA90874052E
:102C14000249E9F0A312474BA32274F2121C36892D
:102C240008890C750D007403780C121BB3850C0A0B
:102C3400850D0B9002EBF09002E9123C37122D2A1D
:102C4400602E1214977900801D890C750D00740292
:102C5400780C121BB39002E91240D08882F583A34A
:102C6400A3E4F0A3F009900348E0F8E9C39840D93D
:102C7400900348E0FA850AF0A4CAA8F0850BF0A4F2
:102C840028FB1214918A0C8B0DAE0CAF0DEE4F7015
:102C940003022D20900348E0FC850AF0A4CCA8F0A0
:102CA400850BF0A428FD79001213DD7C0080318DA2
:102CB4000C750D007403780C121BB38A828B83127B
:102CC4002D2588828983E4F0122D32A3A3F0A3F08A
:102CD4000DEDC3950840D8EE250AFEEF350BFF0C29
:102CE400900348E0F8ECC39850288C0C750D0074E0
:102CF40002780C121BB39002E9122D25E82402502D
:102D04000109FAE9FB8A828B83EEF0A3EFF07D00E0
:102D140080BFE5089002EBF0790080027913024944
:102D2400EC1240D4F922A3A31237D9EA4B22A312FE
:102D3400474BA3A3A32274F4121C367900EAA2E041
:102D4400501F75089E7509907808121E4D79107CE5
:102D5400047D007A9C7B1C1208317402121BDCE98E
:102D6400F980007F04021D08C082C0839002EC1227
:102D74003804601C88828983A3A3E06A7003A3E0FB
:102D84006B8882898370E8A3A3A3A31237D5800438
:102D94007A007B00022A5D74F2121C3674FD121B49
:102DA400C6EAFEEBFF851882851983E4F0A3F0746C
:102DB40002121C127401F012380170141209FF126D
:102DC40014919002EF1234171238017003022F2D60
:102DD400123517EE2404F50AE43FF50B850A82F553
:102DE40083E024FE603C24FC607424FE607E24FEA8
:102DF4007003022E7D24FE7003022E8A24FE7003CB
:102E0400022E9724FE7003022EA424FE7003022EC9
:102E1400B124FC7003022ED224FE7003022EEA02B7
:102E24002F261209FF9002F1EAF0A3EB122F3912B8
:102E34000465E96003022F269002F1121E688E8257
:102E44008F83A3A3A3A3A31247698508828509835B
:102E54001237D51208017402121BDC022F26AC189B
:102E6400AD19EEFAEFFB12084F022EF5AC18AD19AE
:102E7400EEFAEFFB1208558078AC18AD19EEFAEFB4
:102E8400FB12085B806BAC18AD19EEFAEFFB12086D
:102E940061805EAC18AD19EEFAEFFB120867805141
:102EA400AC18AD19EEFAEFFB12086D8044740212EF
:102EB4001C1C880C890D780C121E4D7402121C2CDB
:102EC400EEFAEFFB1208737402121BDC8023AC18B9
:102ED400AD19EEFAEFFB120879E9F87016740212D4
:102EE4001C12E4F0803CAC18AD19EEFAEFFB1208AA
:102EF4007FE9F8E8602C8E828F83A3E0641460225B
:102F0400850A82850B83E09002F1F0851882851989
:102F1400831237D59002F2123417E8A3122F391214
:102F2400045FEEFAEFFB1207D77402121C12E0F9E9
:102F340074030249E9F07CF17D02850882850983E6
:102F44001237D92274E8121C3674FA121BC67404A0
:102F5400121C12ECF0A3EDF08A128B13EA2405F58F
:102F64000EE43513F50FEA2402F510E43513F511D8
:102F7400851082F5831237D51205558A0A8B0B7595
:102F840008007C037D0079007AF17B021213DDE5F1
:102F94000E2402F516E4350FF5177402121C1C8872
:102FA4000C890D780C121E4D850E82850F83A3A308
:102FB400A3A3E0F50C750D00780C121E4DE50E244C
:102FC40005F50CE4350FF50D780C121E4D851682AF
:102FD400851783123ADC12073B7406121BDC8A0C39
:102FE4008B0DE50C450D7003023169802085188234
:102FF400851983E088828983F005088518828519FC
:1030040083A3E0C0E01231AAD0E0F00508E50A2469
:10301400FBFAE50B34FFFBC3E5089AE49B4003028B
:1030240031697E007F00851282851383A3A3A3A345
:10303400E0F5097809121E51E4F514F51578141217
:103044001E4D7514EE7515027814121E4D9002EF84
:10305400121E687409121C12121E68E50A24F9F97A
:10306400AC0CAD0D8510828511831237D51208A9D9
:103074007409121BDCE9600302310A850E82850F94
:1030840083A3A3A3A3A3A3A3E0F89002EEE0687034
:1030940075E0F5148E157814121E4D124766850ED0
:1030A40082850F83A3A3A3A3A3A3A3A31237D5123B
:1030B40013D77402121BDCE9604C9002F21238043C
:1030C400703BE4F5147814121E4D7CFF7DFF7907E4
:1030D4008510828511831237D51208137402121BCE
:1030E400DC12380A7017850E82850F831249037427
:1030F40004121C121241C4123B0D02319D850C8234
:10310400850D831231A0A818A9198814891578147B
:10311400121E4D7404121C12121E68851682851725
:103124008312340D1207477404121BDC8A0C8B0DB6
:10313400EE4F7003022FE61231AAEE1231B5123AA5
:10314400C3EF1231B5F8A3E03400F9E50C450D6086
:1031540003022FF18882898374FFF005081231AAD3
:1031640074FFF00508E508601A1313543F12341D68
:10317400120471E960099002F21237D512144979E8
:10318400008016850E82850F831249037404121C75
:10319400121241C4123E2C790A023A96A3A3A3A3A5
:1031A400E0FEA3E0FF22A8089002F2E028123AC34E
:1031B40022F00508089002F2E0282274E8121C3676
:1031C40074FA121BC67402121C12123417740412FD
:1031D4001C12ECF0A3EDF07402121C12E024051290
:1031E4003AACE0F50CA3E0F50D7402121C12E024D5
:1031F40002F510A3E03400F511851082F58312372F
:10320400D5120555750800750900EA24FCFEEB3457
:10321400FFFF8008050CE50C7002050DA808C3EE3D
:1032240098EF940050030233C9A818A919880E898D
:103234000F780E121E4D851482851583A3A3A3A3B4
:1032440012476D121E4DE5142405F50EE43515F5EF
:103254000F780E121E4D85148285158312340B12BD
:10326400073B7406121BDC8A0E8B0FEA450F7003B2
:103274000233C9EA2404F516E4350FF517851682DE
:10328400F583E0F50CA3E0F50D851882851983120A
:1032940047698A828B83A3A3A3E0F98510828511F1
:1032A400831237D5120729E9F50960030233C9747B
:1032B40002121C12123AD3F5097809121E51E4F5D0
:1032C40012F5137812121E4D7512EE751302781250
:1032D400121E4D9002EF121E687407121C12121E69
:1032E40068EEF9AC0EAD0F8510828511831237D5C7
:1032F4001208A97409121BDCE9F50960030233C939
:10330400E508703FE4F50EF50F780E121E4D7CFFB4
:103314007DFF79098510828511831237D512081330
:103324007402121BDC123AF9700D7404121C12128E
:10333400340079110233FD9002EEE024029002F28F
:10334400F080149002F2E0FA9002EEE07900240298
:103354005001096A497072A8089002EEE0FAE82A5E
:10336400FAE43400FBEE9AEF9B405A8516828517E7
:1033740083E0C0E09002F31231AFD0E0F00508859D
:103384001682851783A3E0C0E0089002F31231AFE0
:10339400D0E0F005089002EE12476D121E4D124760
:1033A40066A808123AA01213C57402121BDC90021C
:1033B400EEE02508F50874FF650C700474FF650DD4
:1033C4006003023218E508601F9002F2E0F5F0E5B0
:1033D400088412341D120477E960099002F312374D
:1033E400D512144979008011E509700375090A742E
:1033F40004121C12123400A909023A96123C3BE54D
:103404000CF0A3E50DF022A3A31249F8AA0CAB0D0E
:1034140022A3A3EAF0A3EBF0229002F1F07CF17D69
:10342400028510828511831237D92274EC121C365E
:1034340074FC121BC6123F3C7402121C2C1237CFB0
:103444001207418A0C8B0DEA450D700302350712F1
:103454003517A818A919881089117810121E4D7CE7
:10346400FF7DFF790B8508828509831237D5120801
:10347400137402121BDC12360D700C850A82850B44
:1034840083123B0A0235148E828F83A3A3A3A3E085
:10349400F5127812121E51E4F512F5137812121E69
:1034A4004D7512F17513027812121E4D7810121E0A
:1034B4004D7409121C12121E687409121C12E0F9D0
:1034C400AC0CAD0D8508828509831237D51208A985
:1034D4007409121BDCE9FE70157CF17D02850882FB
:1034E4008509831237D512047DE97009802074168A
:1034F4006E70027E009002F21237D5121449EE70FB
:1035040004800B7E01850A82850B83123E29EEF925
:10351400023E3EEE2402F508E43FF5092274EC1263
:103524001C3674FC121BC6EAFEEBFF8C0E8D0FEEEC
:103534002405F508E43FF5097402121C2C85088261
:103544008509831237D51207418A0C8B0DEA450D84
:1035540070030235FDEE2402F50AE43FF50BA818CA
:10356400A919881089117810121E4D7CFF7DFF79EE
:103574000D1237CF1208137402121BDC12360D70B1
:103584000B850882850983123B0A807A8E828F8399
:10359400A3A3A3A3E0F5127812121E518508828515
:1035A4000983A3A3121E687512F17513027812120F
:1035B4001E4D7810121E4D7409121C12121E6874CE
:1035C40009121C12E0F91237CB1208A97409121B54
:1035D400DCE9FE700F7CF17D021237CF120483E91F
:1035E4007009802074166E70027E009002F2123709
:1035F400D5121449EE7004800B7E0185088285097A
:1036040083123E29EEF9023E3E123814F510A3E06F
:10361400F511EA45112274E8121C3674FE121BC619
:103624008A168B178C148D15EA2405F50CE43517CE
:10363400F50DEA2402F50EE43517F50F850E82F533
:10364400831237D51205558A088B09750B007C0344
:103654007D0079007AF17B021213DD750A00E5081A
:1036640014F5100424FFF508E50934FFF509805426
:103674009002F1E0FA9002EEE0F8EA28F8E434006F
:10368400F9E50898E50999500D9002F1E0F8E51084
:10369400C3989002EEF0E0F5127513007812121E32
:1036A4004D1247669002F2E02AFAA3E03400FB12BE
:1036B40013C57402121BDC9002EEE0F89002F1E0F4
:1036C40028F0050A850C82850D83A3A31240E040EF
:1036D400030237B09002F1E0C39508E49509400372
:1036E4000237B0AE0AEE2EFEE433FF1237EFAC1809
:1036F400AD19124781E439FB1207418A128B13ACCE
:1037040012AD13EC4D701B750B011237DF123E2DF9
:103714009002F2122D2C6003121449A90B740202B8
:103724003A98851682851783A3A3A3A3E0F50B78A3
:103734000B121E51E4F512F5137812121E4D751278
:10374400EE7513027812121E4D9002EF121E687469
:1037540007121C12121E68A910850E82850F83128F
:1037640037D51208A97409121BDCE9F50B709B907C
:1037740002F21238046003023674E4F512F5137889
:1037840012121E4D7CFF7DFF790F850E82850F83FB
:103794001237D51208137402121BDC12380A6003A4
:1037A4000236741237DF123B0E0237217CF17D02A0
:1037B400850E82850F831237D5120489E9600302CE
:1037C40037147900023721AC0CAD0D850A82850BC4
:1037D400831237D922E0FAA3E0FB221237EFE0FA92
:1037E400A3E0F9EA85148285158322850C82850D70
:1037F40083E02EF8A3E03FF988828983229002EFC8
:10380400124907E84922123814F8A3E0F9E84922DA
:103814009002F2EAF0A3EBF09002F2E02274E812D4
:103824001C3674FA121BC67404121C121234178C40
:10383400168D177404121C12E02405F50EA3E0344F
:1038440000F50F7404121C12E02402123AAC123771
:10385400D51205558A0A8B0B7F007E00A818A9197A
:10386400880889097808121E4D850E82850F83A366
:10387400A3A3A3E0F5088E097808121E4DE50E24D3
:1038840005F508E4350FF5097808121E4D850E82FA
:10389400850F83A3A3123ADC12073B7406121BDCC8
:1038A4008A0C8B0D8029123ACDF00F123ACDF00F0D
:1038B4009002EE123E18121E4D124766EFF8123AAD
:1038C400A01213C57402121BDC9002EEE02FFFE578
:1038D4000C450D700302395C851882851983123FEB
:1038E4004EA3A3A3E0F98514828515831237D5125C
:1038F4000729E9FEE50C2404F510E4350DF511EE75
:1039040070507404121C12123AD3F5087808121E6F
:1039140051E4F508F5097808121E4D7508EE75098D
:10392400027808121E4D9002EF121E687407121CD2
:1039340012121E68E50A24FAF9AC0CAD0D85148246
:103944008515831237D51208A97409121BDCE9FE08
:103954006039123AE9123E2CEF7003023A83900266
:10396400F2E0F5F0EF849002F1F07CF17D02851431
:10397400828515831237D512048FE960099002F30A
:103984001237D51214497900023A968F08EF703B2A
:10399400E4F512F5137812121E4D7CFF7DFF7911A8
:1039A4008514828515831237D51208137402121BED
:1039B400DC123AF97009123AE9123B0D023A969078
:1039C40002EEE024049002F2F080359002EEE0F87A
:1039D4009002F2E0FAE82404FCE43400FDEC6A4DC1
:1039E4006003023962E50A24FAFAE50B34FFFBE5C9
:1039F4000828F8E43400F9EA98EB99500302396294
:103A0400851082851183E0C0E09002F3E02FF8A3D3
:103A1400E034008882F583D0E0F00F8510828511B0
:103A240083A3E0C0E0123ABAD0E0F00F7402121C93
:103A34001C880889097808121E4D7402121C12127F
:103A44001E68850E82850F8312340B120747740497
:103A5400121BDC8A0C8B0DEA450D70030238AA7424
:103A640002121C12E0C0E0123ABAD0E0F00F740265
:103A7400121C12A3E0C0E0123ABAD0E00238B2EE4F
:103A840070027E0A850E82850F83123AEF123E2C55
:103A9400EEF97406121BDC7F10021D089002F3E09D
:103AA40028FAA3E03400FB22F514A3E03400F51552
:103AB400851482F58322123ABE229002F3E02FFA93
:103AC400A3E034008A82F58322123ABE74FF2212E4
:103AD4003C3BA3A3A3A3E0221249F8850E82850FE1
:103AE400831237D9228510828511831249078516DE
:103AF40082851783229002F3EAF0A3EBF09002F39D
:103B0400124907E84922123E32E8F0A3E9F079119C
:103B14002274EA121C3674FE121BC68A088B098CA6
:103B2400128D13EA2405FEE43509FFAC18AD198E95
:103B3400828F831237D51207418A0C8B0DEE24062F
:103B4400F50EE43FF50FEA450D7003023C0DE50860
:103B54002402F50AE43509F50B8A828B83A3A3A317
:103B6400E0A2E550288518828519831237D51208FA
:103B74009D8A108B11EA4511602079121237CB858A
:103B84001082851183121C34E9F50C707F850E8236
:103B9400850F83E0600979528011750C0E806D8564
:103BA4000882850983A3A3A3A3E0F9E4F508F50932
:103BB4007808121E4D8E828F83A3A3E0F50878083F
:103BC400121E4D8E828F83A3A3A3121E688E828F32
:103BD400831247691237CF1208AF7406121BDCE94F
:103BE400F50C7011850E82850F83E0702D1237CF8E
:103BF40012049580257416650C7011750C007418E8
:103C0400121C12123C37E48010750C011248FF8517
:103C14001282851383E8F0A3E9F0850E82850F8371
:103C2400E0600479008002A90C7402121BDC7F0E90
:103C3400021D08123C3B22E0F8A3E0F583888222AF
:103C440074EC121C3674F7121BC68A0A8B0B8C1088
:103C54008D11EA2405FEE4350BFF750C00AC18AD9C
:103C6400198E828F831237D51207418A088B09EA8D
:103C740045097003023E03E50A2402F50A500205D1
:103C84000B8A828B83A3A3A3E0A2E5502F8518821D
:103C94008519831237D512089D8A0C8B0DEA450DC0
:103CA400604F7912AC08AD091237CF850C82850DAF
:103CB40083121C34E9F50C6003023E06850A8285F2
:103CC4000B83E0F508A3E0F509AA08FB120891EAC2
:103CD4004B70197AFF7BFF120891EA4B7003023D87
:103CE400F98A828B83E508F0A3E509F07508008062
:103CF40008750C0E023E0605089002EBE0F8E50894
:103D0400C3984003023DF985080E750F00740378CB
:103D14000E121BB38A828B83A3A3E0250EF8A3E0C3
:103D2400350F1241CD70D08E828F83123E21123412
:103D3400178E828F83A3A3123E21123415EE24041E
:103D4400F508E43FF509850882F583E088828983D4
:103D5400A3A3A3A3F0A3E4F0EE2405F50EE43FF53A
:103D64000F850E82F583123E21A3A3A3A31234155B
:103D74007512077513007812121E4DEEFCEFFD74D8
:103D840004121C241213C57402121BDCE4F512780D
:103D940012121E4D850882850983E0FC7D00791787
:103DA4001237CF1208137402121BDC7407121C1290
:103DB4001234177407121C12E0FA4B603D85088216
:103DC400850983123E18121E4D850E82850F8312BB
:103DD40047691213C57402121BDC7402121C2C12E4
:103DE40037CF12049BE960267407121C121237D5D0
:103DF4001214498019750C098008750C118003751B
:103E04000C011248FF851082851183123E2CA90CE7
:103E140074098028E0F5087509007808221237D95A
:103E24008882898322123E32E8F0A3E9F022E0F886
:103E3400A3E0F9850E82850F83227404121BDC7FB4
:103E44000C021D0874EC121C36123F3C751000EE77
:103E54002402F50CE43FF50D850C82F5831237D569
:103E64001208918A088B09EA45097003023F2085EC
:103E74000A82850B83E064016003023F15AC08AD40
:103E840009AA0AAB0B120885E9606E8508828509C8
:103E9400831231A2EE2406F50AE43FF50B8E828FDD
:103EA40083A3A3121E688E828F83A3A3A3A3121ECF
:103EB40068850A82850B83121E6879188E828F8327
:103EC400123F4E1237D51208AF7406121BDCE9F804
:103ED400741668700B850A82850B83E4F0A3801442
:103EE400E860128E828F831237D5850E82850F8308
:103EF400EAF0A3EBF088108018780E121E4DAC087F
:103F0400AD09EEFAEFFB12088B7402121BDCE9F523
:103F140010AA08AB09120897E510700E850C82856B
:103F24000D831237D51204A180097416651070032D
:103F3400751000A910023E43EAFEEBFF8C0E8D0FB4
:103F4400EE2405F50AE43FF50B221249F8850C82AC
:103F5400850D832274EA121C367508007509007EEB
:103F6400007F00750A00EC2402F510E43DF5118091
:103F740035EC65087003ED6509600302400D888225
:103F84008983A3A3E06A7003A3E06B707C888289B1
:103F940083A3A3A3A3124903EE28FEEF39FFEA2863
:103FA400FAEB39FB050A1240DD503A850A0C750D0F
:103FB400007403780C121BB38510828511831240A0
:103FC400D01241CD601FE508450970A58C088D0904
:103FD400888289831231A088828983A3A3E02EFA80
:103FE400A3E03F80BEE50AC3940250030240CB75B0
:103FF4000800750900EE4F6010EEFAEFFB1214434F
:104004008A0E8B0FEA450F700579000240CD750BBF
:10401400000240A0850B0C750D007403780C121B74
:10402400B3851082851183E0250CF50CA3E0350DD2
:10403400F50DE50C2406F514E4350DF5158514820B
:10404400F5831241D26042E50C2404F512E4350DE7
:10405400F513851282F583121E68E50E2508FAE52C
:104064000F3509FB1213C57402121BDC85128285FD
:104074001383E02508F508A3E03509F509851482C2
:104084008515831237D5121449E50B600D7C087D24
:10409400007900AA0CAB0D1213DD050BE50BC395DB
:1040A4000A5003024018851082851183124903883F
:1040B400828983A3A3A3A3A3A3E50EF0A3E50F1210
:1040C4002D33EEF0A3EFF07901023C321240D422FA
:1040D400E0250CF8A3E0350D229002EBE0F8E50AA8
:1040E400C3982274F0121C368A0E8B0F8C0A8D0B27
:1040F400750D00750C0080507916EE2406F508E461
:104104003FF5098E828F83A3A3121E688E828F834C
:10411400A3A3A3A3121E68850882850983121E68BF
:10412400850E82850F83A3A31237D51208AF7406B8
:10413400121BDCE9F50D7416650D706C850882851B
:104144000983E4F0A3F0050C9002EBE0F8E50CC35E
:10415400985066AA0C8A0875090074037808121B23
:10416400B3850A82850B83A3A312421CE8FEE9FFF0
:104174008E828F831241D26040EA2401F508E43430
:1041840000F5099002EBE065087002E50960148807
:10419400828983A3A3A3A3A3A3A3A31238046003C4
:1041A4000240FC79180240FEE9609B1248FF74103B
:1041B400121C121241C4123E2CA90D7F08021D08C4
:1041C400E0FAA3E0F5838A8222F98882898312497E
:1041D400F8EC4D2274F6121C367C0080010C90031E
:1041E40048E0F8ECC398501E8C08750900740278F6
:1041F40008121BB3124211E06A7003A3E06B70DD76
:10420400E8FAE9FB80047A007B000242B49002E9F8
:1042140012421C8882898322E02508F8A3E035092C
:10422400F92274F2121C368A088B09750A00802759
:104234008E828F83A3A3A3A3122D2A600312144991
:104244007C087D007900EEFAEFFB1213DD8E828F7D
:1042540083E4F0A3F0050A1240DD5027850A0C75AB
:104264000D007403780C121BB3850882850983A39F
:10427400A3E0250CFEA3E0350DFF8E828F83123858
:104284000470AD85088285098374FFF0A3F00249A8
:10429400EC74F6121C361208438A828B83E582453D
:1042A4008370067A007B008007A3A3A3A31237D5EB
:1042B4007F02021D0874F4121C3689088C828D83D7
:1042C400E06402703C1248A2FEA3E0F9EEF8740226
:1042D4006870037429697029750A02750B00780ADD
:1042E400121E4D7410121C12121E687410121C122D
:1042F400121E68A9081212D57406121BDCE9F98093
:10430400027901022D6774E8121C3674FB121BC675
:10431400E9851882851983F08A168B17ECFEEDFF68
:104324007510008E828F83A3A3A3E0A2E4502D74A2
:104334001D121C121237D512089D8A828B83E582C6
:1043440045837003024741790AEEFCEFFDAA16ABE0
:1043540017121C34E9F5106003024744741F121C41
:1043640012E0F508A3E0F5097421121C12E0F50A25
:10437400A3E0F50B7423121C12E0F50EA3E0F50F75
:104384008E828F83E0640260030246E2A312490333
:10439400850882850983A3858212858313EE24060A
:1043A400F50CE43FF50D88828983124781F514E406
:1043B40039F5157814121EDB010000280128E443A6
:1043C40007000228A944032817440029D8450129D5
:1043D40003460229A4450329D84504297C46E2461C
:1043E400E50E450F60030246DD850C82850D8312C0
:1043F4004903E8FAE9FB8A828B83E0850A82850B0C
:104404008312478C121E4D8A828B83A3E0FCA3E0A7
:10441400024666E50E450F60030246DD850A828585
:104424000B837401F0124776850882850983F07C3A
:10443400007D008E828F83A3A3A3A3E02401FAA3AB
:10444400E03400FB120741EA4B60408A828B83E030
:104454002402F8850A82850B83E028F0EA2404F814
:10446400E43BF988828983E08512828513831247AD
:104474009A12478C121E4D8A828B83A3124769E5D8
:10448400082403FAE43509FB02466B850A82850B8E
:1044940083E02404F07C047D007900AA12AB13129B
:1044A40013DD024744E50E450F60030246DD124763
:1044B40076FEA3E0FF850A82850B837404F0EE8503
:1044C4000882850983F0EF851282851383F07403D3
:1044D400121C2CEEFAEFFB1207418A0C8B0DEA45F5
:1044E4000D70030245878A828B83A3A31231A074C3
:1044F40001121C1C880E890F780E121E4D740512B1
:104504001C12121E687CFF7DFF1207477404121BE5
:10451400DC8B0FEA450F7033850C82850D831247BF
:104524006D121E4D850C82850D83A3121E687C02BC
:104534007D007A707B911205437404121BDCE970D0
:104544000A7401121C1274FFF0A3F08E828F83E0B0
:1045540064027039750C02750D00780C121E4D8EB4
:10456400828F83A3124769E5082404FAE43509FB22
:104574001213C57402121BDC850A82850B83E024A6
:104584000280097401121C12EEF0A3EFF074011200
:104594001C1212475B7401121C121247520246D7B6
:1045A400E50E450F60030246DD850C82850D8312FE
:1045B40049F1AA16AB171212DB850A82850B8374A4
:1045C40002F0850882850983EAF0851282851383C7
:1045D400EB0246DAE50E450F60030246DD1247762C
:1045E400F8A3E0F9850A82850B837402F0E8850854
:1045F40082850983F0E98512828513830246DA8570
:104604000C82850D831237D51213BFEAFAF8C395CD
:104614000EE4950F405CE8650E450F70047A008047
:1046240021851882851983E0FCE50E2CFCE4350F06
:10463400FDC3EC98ED94005003E08005E50ECAC379
:104644009AFAEA850A82850B83F08A0A750B007848
:104654000A121E4D850C82850D83E0250EFCA3E015
:10466400350FFDAA08AB091213C57402121BDC0234
:104674004744751007024744E50E450F705B850CEF
:1046840082850D83124903850A82850B837407F0A2
:104694008882898312475312474BE085128285131F
:1046A40083F0E82402FAE439FB8A828B8312475BA5
:1046B4008A828B83124752A3A3122D32124760F0D1
:1046C400E82405F850010988828983124760A312FF
:1046D400479AA3A3A3A3F0806775100B8062741D8F
:1046E400121C121237D51208438A828B83E5824545
:1046F40083604A124903880C890DE8450D603E74B5
:1047040025121C12E0F5107810121E51780E121E9C
:104714004D780A121E4D7808121E4D7407121C1291
:10472400E0F9EEFCEFFDAA16AB17850C82850D832C
:10473400121C347407121BDCE9F510800375100E8B
:10474400A9107405023A98F088828983A322A3E011
:10475400850882850983221247A1F0221247A1A36A
:10476400A3229002EF1249F822E0F50E750F0078AB
:104774000E22850C82850D83123C3BE022E0FAA3D5
:10478400E0F8E4C8F9EA2822F08A828B83E0F50A8B
:10479400750B00780A2212474B1247A122E08508C4
:1047A40082850983A3A32274EE121C3674FE121BA5
:1047B400C68A088B09ECFEEDFF890AAC18AD19EE28
:1047C400FAEFFB1207418A0C8B0DEA450D700302C8
:1047D40048938518828519831237D51208438A8233
:1047E4008B83E5824583700302488EA3A312490399
:1047F400880E890FE8450F700302488E7414121C4A
:1048040012E0F510A3E0F511E50AF50B780B121E82
:10481400517419121C12121E687810121E4D741B4A
:10482400121C12E0F9AC0CAD0DAA08AB09850E827E
:10483400850F83121C347405121BDCE9F50B7052CE
:1048440074FE650A604C850C82850D83E0640270F9
:10485400411248A2FAA3E0F9EAF8740268700374FA
:104864002969702E851082851183124781F50CE425
:1048740039F50D780C121E4DEEFCEFFDAA08AB09BC
:104884001208C77402121BDC8008750B0E800375B6
:104894000B01A90B7402121BDC7F0A021D08A31270
:1048A400490788828983E02274F6121C3674FE124A
:1048B4001BC6740C121C12124903E8851882851950
:1048C40083F07401121C12E9F0E4F508F509780884
:1048D400121E4D7508027808121E4D7404121C1C19
:1048E400880889097808121E4D79FE1208AF7406EB
:1048F400121BDC7402121BDC0242B48E828F831200
:10490400490722E0F8A3E0F92274F7121C36EAFE04
:10491400EBFF89089003061247691212DBEA54027E
:10492400600BA908EEFAEFFB120735800279017FCC
:1049340001021D0874F2121C3674FE121BC6EAFE34
:10494400EBFF890A7401650A60147402650A600346
:104954000249E77901120AE3E960030249E7EEFA42
:10496400EFFB120891EA4B6003120897A818A919E3
:10497400880889097808121E4D750802750900789F
:1049840008121E4D7508587509917808121E4D7C41
:10499400FF7DFF7A017B0012073B7406121BDC804B
:1049A40038850882850983A3A3A3A3A3A31249F18D
:1049B400EEFAEFFB1212C3E4F50CF50D780C121E9F
:1049C4004D7402121C12121E687CFF7DFFAA08ABF4
:1049D400091207477404121BDC8A088B09E5084591
:1049E4000970BE7402121BDC7F06021D08123C3BD8
:1049F4001249F822E0FCA3E0FD2274F4121C368A6A
:104A0400088B09ECFEEDFF901C9AE0F4604B7A09E8
:104A14007B001213E9EA4B60408A828B8374B1F005
:104A2400A3E4124A60F08A828B83A3A3E508F0A36F
:104A3400E509124A60A3EEF0A3EFF0740C121C1205
:104A44001249038A828B83A3A3A3A3A3A3A3123E25
:104A54002C901C9AE0F91213F5022D67F08A828BD0
:104A640083A3A3A3A322C082C0839061907404F0A3
:104A7400A37448F0A3E4F09061807440F09061BCAA
:104A84007407F09061877469F09061B67416F079D8
:104A940000120C1B7902120C21902A4CE493F4604E
:104AA40006E493F9120BF77905120FF3025160C073
:104AB40082C083E9540FF9906185E0696012E5C60C
:104AC40054B84441F5C6E59E5447644170F8E9F092
:104AD40053C6B8E59E544770FA02516074F7121C2D
:104AE40036AEA853A87E120C03C2BA539AFEC289EA
:104AF400759B00C2C2120C0975A91175B905120C77
:104B04000FD2BA439A0174805E42A8025804C0824C
:104B1400C083906181E4F0A3801D75E90075910064
:104B240075BF0002011FC082C083906181E4F0A3BD
:104B340074C0F0A3E48002F0A3F0025160C082C00C
:104B44008374F8121BC69003781266767003024CC5
:104B540014900378E0544060177908AA18AB19122E
:104B64000D6BAA18AB19120939900378E054BFF001
:104B7400E054806010790C7A877B07120D6B9003E8
:104B840078E0547FF0E0A2E0500F7900120C1B1281
:104B9400093F900378E054FEF0E05402600F79017D
:104BA400120C1B12093F900378E054FDF0E054040A
:104BB400600F7900120C21120945900378E054FB30
:104BC400F0E05408600F7901120C2112094590039A
:104BD40078E054F7F0E05410600F7902120C2112BF
:104BE4000945900378E054EFF0E05420600F790316
:104BF400120C21120945900378E054DFF0A3E0542D
:104C040001600D120C2D12094B900379E054FEF053
:104C14007408121BDC025160C082C083E960051471
:104C2400602A804F90619A7433F0A37455F09061B8
:104C3400A0743AF0900761E064017009C291900396
:104C44007A7467802D90037A7461802690619A74D7
:104C54003FF0A3745AF09061A0747FF0900761E074
:104C640064017009D29190037A7471800590037A7B
:104C7400746AF0025160C082C083E9600B14600D55
:104C840014601714600C8020902A508015902A51CB
:104C94008010900761E064017005902A52800390AF
:104CA4002A53E493906186F002516074EE121C362C
:104CB40074F4121BC69090CEAC18AD197404121A79
:104CC400D9902A5093F46003024DC7907808E0C34A
:104CD40094025003024DAB9090907404121C2C74F7
:104CE40008121AD97F00750CFF750DFF750EFF7E33
:104CF40000EFFC800F74086E606D74096E60687458
:104D04000A6E60638E0875090074027808121BB37A
:104D1400124DD1121A8AA909E50AC9F88810741823
:104D240078081219CBE5104508FAE9FBEC2CF8E4F5
:104D340033F97404121C12E58228F582E5833912D2
:104D44005830C3E89AE99B4008E8C39AF8E99B8085
:104D540006EAC398F8EB99F9C3E8950CE9950D5068
:104D640006880C890D8E0E0EEEC39413408774FFD3
:104D7400650C700474FF650D6023850E0874027859
:104D840008121BB3124DD1121A8A85188285198311
:104D9400E5822CF582E43583F583E508F00FEFC353
:104DA40094045003024CEA7508017509007808124E
:104DB4001E4D7402121C2C7A947B0A12132974025D
:104DC400121BDC740C121BDC7F0A021D08744825BC
:104DD40008F58274783509F583780822C082C08387
:104DE400906186E0F8902A53E493687009902A52FF
:104DF400E493906186F09061AE7468F0A3746AF0F5
:104E040090624574FBF0A304F053F4FD43FE02905A
:104E140007617401F09061A0E0643A700479008045
:104E2400027901120C1B025160C082C08390073FBB
:104E3400E064017013900745E0F87401686027E8A6
:104E44007006A3E06401601E900756E064017008D8
:104E540090075CE06401600E9006E9E06401700A6A
:104E64009006EEE06004790C80027900025160C083
:104E740082C08375E1F19006ECE0604C1460091483
:104E8400605014604814704F120C3F9006DBE0F938
:104E94007ADC7B06120F459090D2121AA8120F9357
:104EA4009090EA121AA8120F519006EDE0F9120F31
:104EB4005D7901120FE79006D912514F746FF0A378
:104EC400740CF07900025160120C4580BE120C4B38
:104ED40080B9120C5180B4791280EA74F4121C3631
:104EE40075D90D9006E2E0A2E0E4331313F8124FF3
:104EF400E5484401F5D97A00124FEF40FB7A00EA05
:104F0400F874E3125DBC3406124FF940F275E19572
:104F14009006E2E0F97AE37B06120F4B901CBE7414
:104F2400CDF0A3740B124FFF12527074EBF0A37404
:104F34000B1252839006ECE064019006D9700B12B8
:104F44004F7D121A8A90910E8009124F7D121A8A8F
:104F54009091267808121A169090E67808121A642E
:104F640012502A7808121A999006D91252577413BB
:104F74001251047402F0025FCE1260DD78082274CC
:104F8400F7121C36124FDBFC8CD97A00124FEF401B
:104F9400FB7A00800612507712562BEAC39B40F529
:104FA4001250F2124FEF40FB7A008008125DB834C1
:104FB4000712562BEAC39B40F375E195901CBE740F
:104FC400D9F0A3740B124FFF12500974121251043A
:104FD4007401F0FF021D089006F2E0FB74072BF544
:104FE400D99006DBE0C4333354C022EAF874DC28D9
:104FF400F582E434061257699406221253E574D3F9
:10500400F0A3740B22125276F0A374EBF0A3740B8A
:1050140012528712502A74FFF0A3F0A3F0A3F09069
:1050240006D912525B229006D9125251240EF582EF
:10503400E438F5832274F7121C36124FDB4402F570
:10504400D97A00124FEF40FB7A0080061250771293
:10505400562BEAC39B40F575E195901CBE12508215
:10506400F0A312508212500C74141251047404F000
:10507400025804EAF874F328F582E434062274E54D
:1050840012508F12508FF0A3740B22F0A3740BF004
:10509400A374E52274F7121C36124FDBFC74064C21
:1050A400F5D97A00124FEF40FB7A00800612507750
:1050B40012562BEAC39B40F51250F2124FEF40FBFD
:1050C4007A008008125DB8340712562BEAC39B405D
:1050D400F375E195901CBE74DFF0A3740B1253DEDC
:1050E40012500974151251047403F0025804900705
:1050F40012E0FB74072BF5D974044CF5D97A00221D
:10510400F090037622C082C0839007497425F09002
:1051140007477401F0A3E4F07A01FB120F6F9007C4
:105124003512514F747BF0A3740CF0900746E06481
:10513400017016900745E070107901120FCF120F1D
:105144009F120FC97900120FDB8011125251241AD9
:10515400F582E438F58322E0F9122937D083D0822E
:1051640002011FC082C08374FA121BC690073EE07E
:1051740064017008120C5790073EE4F075E1F19059
:1051840007351252512415F582E438F5837401F081
:10519400900740E0640170469090B6AC18AD197465
:1051A40006121AD975D90D900737124FE84403F542
:1051B400D97A00EAF87438125DBC3407124FF9400A
:1051C400F27A00EAF8851882851983E582125DBCBB
:1051D4003583124FF940EC75E1957901800279002D
:1051E400120F75901CBE740DF0A3740EF0A374130B
:1051F400F0A3740E12526712526712527012527C4C
:10520400F0A37419F0A3740E125283900737E0F9D7
:105214007A387B07120F45900749E0F9122937794C
:1052240001120F7B9090D2121AA8120F939090EA59
:10523400121AA8120F517900120FE7900735125273
:105244005774161251047405F004024C16E0F8A3C6
:10525400E0C82212525B221252512414F582E4381F
:10526400F58322F0A3740DF0A3740E22125276F08B
:10527400A32212527A22F0A374D7F0A3740D22123F
:10528400528722F0901CCC12527C1253E912527CA9
:1052940012527AF02274F7121C368908A808126098
:1052A400C290074EE0F97A4F7B07120F4590075CD6
:1052B400E070257900120FB1EE2406FAEF3401FBF9
:1052C400EE240CF582EF3401F583E070047900805C
:1052D400027901120F4B80057901120FB175E1F1CA
:1052E40075D92390074E124FE84405F5D97A00EAA0
:1052F400F8744F125DBC3407124FF940F275D900AF
:1053040075D90075D90075D90075D90075D9007A99
:10531400001253D4242212575F40F67A001253D459
:105324002426F582E43912562BEAC3940340EEEEA8
:10533400242B125754242C125754242D125754241E
:105344002E125754242F12575424301257542431F8
:10535400125754243212575424331257481253D438
:10536400245DF582E43912588E40F2EE2437125946
:1053740053541FF8EE242A125953C43354E048F509
:10538400D975E195901CBE74DDF0A3740DF0A3747F
:10539400E3F0A3740D1253DEF0A374E9F0A3740DCB
:1053A40012528390075BE0F91229379090D2121AB7
:1053B400A8120F939090EA121AA8120F5190600D40
:1053C400E4F07901120FE79003767406F0025804B2
:1053D400EAF8EE28F8E43FF9E8221253E512527C89
:1053E400221253E9221253F674D7F0A3740D125308
:1053F400F622F0A374D7F0A3740DF0A32274EC1278
:105404001C3690074C1260D97810121A8A90075DE6
:10541400E0FAF875F00DA4C8ACF02CF912626FEE46
:105424002EFEEF33FF8E0CF50D750E00750F008503
:10543400100885110985120A85130B9091267808A6
:10544400121A167808121E4585100885110985124E
:105454000A85130B7808790C121A037810790C1248
:10546400195CE4F50EF50F7808790C121A3C8A0CD5
:10547400750D007403780C121BB37808790C121A9A
:10548400039090E67808121A64AA08AB09AC0AAD36
:105494000B12273D7404121BDC8A088B09A808A987
:1054A40009C3EE98EF995006E82EF8E93FF9E89021
:1054B400600EF0E9A3F0EEA3F0EFA3F090600D749A
:1054C400C1F07F0C021D08C082C0839006D912551A
:1054D40041024B3B74F7121C369003A412627F7492
:1054E400A628F8740339F9E82405FAE43912651595
:1054F400A3A3A3A3A3A3A3A3A3ECF0A3ED126056B9
:10550400A3E024FFF8A3E034FFF98A828B83E8F058
:10551400A3E9F0025804C082C08390073512553ABB
:1055240090074902515BC082C08390074C12553AE0
:1055340090075B02515B125541F0A3F022125251C5
:105544002406F582E438F583E42202011F74F21282
:105554001C3612561AFAEE2483F50AE43FF50B853D
:105564000A82F583E06004780480027800E8240E5F
:10557400F8EAC398500302561575080C900767E4BF
:10558400F0EE2476125953900768F07902EE2477EE
:10559400FCE43FFD7A697B07120D597902EE247908
:1055A400FCE43FFD120D597902EE247BFCE43FFD3F
:1055B400120D597902EE247DFCE43FFD120D59EEE3
:1055C40024741256BB120D59850A82850B83E06040
:1055D4001E7508677509077808121E4D7C0C79033F
:1055E400EEFAEFFB120DCB7402121BDC750810747B
:1055F400012508F5D975D9037A008003125628EAE3
:10560400C3950840F775E1957904120F99790180E3
:10561400027900025B0CEAFEEBFF9061D0E0F874C3
:1056240080C39822125632F583E0F5D90A22EAF8AB
:10563400746728F582E434072274F2121C36125B74
:10564400116004780480027800E8240AF8EAC39818
:105654004060750A089007677401F079057CCD7D78
:10566400067A687B07120D59EE24801256BB120D80
:1056740059850882850983E0601E750867750907E6
:105684007808121E4D7C087903EEFAEFFB120DCB5D
:105694007402121BDC750A0C125A6B800312562812
:1056A400EAC3950A40F775E1957904120F997901D7
:1056B40080027900025B0CFCE43FFD8E828F83A3A1
:1056C400A3A3A3A31266838C828D83E028F0A3E0B6
:1056D40039F079022274F7121C36EAFEEBFF90616E
:1056E400D0E0705B75D91875D90375D9037A0012A7
:1056F40053D4249C1257F840F6EE24A41257542491
:10570400A51257481253D424941257F840F67A003D
:105714001253D4248812575F40F675E1957908EE48
:105724002494FAE43FFB120D5F7904EE2488FAE432
:105734003FFB120D5F7904120F9912595E800279B2
:1057440000025804F582E43FF583E0F5D97A00229B
:10575400F582E43FF583E0F5D9EE2212576594040F
:1057640022F582E439F583E0F5D90AEAC32274F715
:10577400121C36EAFEEBFF9061D0E0707375D90E0F
:1057840075D90375D9047A001253D4248C1257F8AE
:1057940040F67A001253D4248412575F40F675E120
:1057A400957908EE248CFAE43FFB120D5F7904EE40
:1057B4002484FAE43FFB120D5F7C00ECF8C3E49808
:1057C400FA95E0FBEE2AFAEF3BFBEA248BF582E440
:1057D4003BF583E0C0E01253D624ABF582E439F5FF
:1057E40083D0E0F00CECC3940840D012595E8002E0
:1057F4007900800C125765940822A2E092AF7900D8
:105804007F01021D08C082C08375D90275D9037552
:10581400D90575E195EA246FF582E43B125830EA24
:105824002471F582E43B125971025160F5831266CA
:10583400832274F6121C36EAFEEBFF9007677406A7
:105844001258D1121E4D7C017903120DCB74021231
:105854001BDC75D90675D9037A0012588B40FB7589
:10586400E195900376E064087018EE246FF582E405
:105874003F125830EE2471F582E43FF583E8F0A33B
:10588400E9F07901025BA912563212576994052294
:1058940074F6121C36EAFEEBFF9061D0E07029909A
:1058A4000767740A1258D1121E4D7C017903120D38
:1058B400CB7402121BDC75D90675D9037A00125811
:1058C4008B40FB12595B80027900025BA9F07508DA
:1058D4006775090778082274F6121C36EAFEEBFF96
:1058E4009061D0E0703C7A01900767740B12510408
:1058F400E06407701B7508677509077808121E4D68
:105904007C017903EEFA120DCB7402121BDC7A05CA
:10591400125BBC8003125BC7EBC39A40F812595B5D
:1059240080027900025BA974F7121C36EAFEEBFFD1
:1059340075D90375D90375D90DEE24DE125953F5C3
:10594400D975E1957904120F9912595E025804F53C
:1059540082E43FF583E02275E195EE246FF582E45D
:105964003FF583126683EE2471F582E43FF583E804
:10597400F0A3E9F079012274F5121C36125A77600B
:1059840004780480027800E8240BF8EAC3984052B3
:10599400750A099007677408F0F9125A5F120D59D5
:1059A400850882850983E0601E7508677509077894
:1059B40008121E4D7C097903EEFAEFFB120DCB742D
:1059C40002121BDC750A0D125A6B8003125628EA68
:1059D400C3950A40F775E1957904120F9912595E3F
:1059E400800279007F03021D0874F5121C36125AD6
:1059F400776004780480027800E8240BF8EAC398FE
:105A04004055750A099007677409F07908125A5FBE
:105A1400120D59850882850983E0601E7508677533
:105A240009077808121E4D7C097903EEFAEFFB1280
:105A34000DCB7402121BDC750A0D125A6B80031213
:105A44005628EAC3950A40F775E1957904120F992F
:105A5400125BAE7901800279008089EE24E5FCE4D2
:105A64003FFD7A687B07227401250AF5D975D903AD
:105A74007A0022125B21F8E43FF9880889098882B8
:105A8400F583E02274F2121C36125B116004780470
:105A940080027800E82408F8EAC3984069750A0689
:105AA400900767740CF0900393E0900768F0790214
:105AB4007C947D037A697B07120D5979027C967D6B
:105AC40003120D59850882850983E0601E750867F5
:105AD4007509077808121E4D7C067903EEFAEFFB70
:105AE400120DCB7402121BDC750A0A125A6B800366
:105AF400125628EAC3950A40F775E1957904120F06
:105B04009912595E800279007F06021D08125B21FA
:105B1400F508E43FF509850882F583E022EAFEEB07
:105B2400FF9061D0E0F87480C398FAEE2483227465
:105B3400F6121C3612561AFCEE2483F8E43FF98858
